:020000040800F2
:20000000C05201205D030008B9BF00085DB70008B5BF0008E12D00082905010800000000E0
:20002000000000000000000000000000D9C300082D31000800000000D5C3000869C40008E1
:20004000770300087703000877030008770300087703000877030008770300087703000890
:20006000770300087703000877030008452F0008552F0008652F0008752F0008852F0008EE
:20008000770300087703000877030008052E0008E52D000877030008F52D00087703000857
:2000A000770300087703000877030008770300087703000877030008770300087703000830
:2000C0007703000877030008770300087703000877030008770300087703000809D30008AE
:2000E00077030008770300087703000877030008770300087703000877030008952F0008A6
:200100007703000877030008770300087703000819CC000829CC00087703000841C500085D
:200120007703000877030008770300087703000877030008053200087703000877030008F2
:2001400077030008770300087703000829C000087703000877030008770300087703000820
:200160007703000877030008770300087703000877030008770300087703000800000000F1
:20018000770300087703000800F002F800F0BDF80AA090E8000C82448344AAF10107DA454F
:2001A00001D100F0B2F8AFF2090EBAE80F0013F0010F18BFFB1A43F001031847D4AC030052
:2001C000F4AC03000A444FF0000C10F8013B13F0070408BF10F8014B1D1108BF10F8015B1D
:2001E000641E05D010F8016B641E01F8016BF9D113F0080F1EBF10F8014BAD1C0C1B09D16E
:200200006D1E58BF01F801CBFAD505E014F8016B01F8016B6D1EF9D59142D6D3704700005A
:200220000023002400250026103A28BF78C1FBD8520728BF30C148BF0B6070476E2900F00E
:20024000B584702900F0F785662935F07783652935F07483672935F07183612935F07083BD
:2002600003681B0A28BF41F08001692900F06284642900F05F84752900F05C846F2900F097
:200280008585782900F0C385E92900F01F85E42900F01C85F52900F01985EF2900F082857C
:2002A000F82900F0C2850368DB0928BF41F08001632901F0ED84732901F0F284E32901F010
:2002C000FD84F32901F00285002070471FB535F020FB9DE8030000F089FB00F086F900F0C3
:2002E00065FB04000020002134F0D0FC401C60600020002134F0E0FCE06000F03BFB1FBDCA
:2003000010B5002001F038FD10BD01F07AFD1146FFF7DCFF2BF03EF802F0C6F803B4FFF7C7
:20032000EFFF03BC00F038FB0B49D1F800C04A685CF8043B1068184442F8040B8C4528BFF6
:20034000A1F1DC0C8A4228BFA1F1DC02C1F800C04A6020F000407047001B00200948804783
:2003600009480047FEE7FEE7FEE7FEE7FEE7FEE7FEE7FEE7FEE7FEE704480549054A064BB9
:20038000704700002DC5000889010008C0FE0020C0520120C04E0120C04E012010B500F0F6
:2003A00005FB001D10BD00BFE548030070B5A0FB0140B4F1805170F1000024BF002070BD5C
:2003C000204600F007F805001CBF214600F0DCFF284670BD70B5064600F0E4FA056806F178
:2003E0000B0020F00704B4429CBF002070BD2B466A68BAB11068A04210D304F10801884286
:200400003CBF5068586007D35168101941601168091B016058601460101D70BD134652687D
:20042000002AE7D12146284600F0CCFA0028DED170BD70B50446051F00F0B4FA0068002C86
:2004400014BF446870BD002C18BFAC423CBF20466468F8D301680A18AA4218BF456003D140
:200460002A6805461144016028684119A1421CBF6C6070BD6168696021680844286070BD2C
:2004800053EA020C00F069802DE9F04B4FF00006002B1FBFB3FA83F503FA05F424FA05F665
:2004A0005E4012BF1643B2FA82F502FA05F4C5F120051EBF22FA05FC44EA0C04203556EAB4
:2004C000044C4FEA144418BF641C4FF000084FF00009904271EB030C39D3002919BFB1FA60
:2004E00081F701FA07F6B0FA80F700FA07F6C7F120071EBF20FA07FC46EA0C062037B6FB51
:20050000F4FCA7EB0507103F07F01F0BCBF120062CFA06F60CFA0BFB44BFB3460026202F5C
:20052000A4BF5E464FF0000B5BEA060C08BF4FF0010B19EB0B0948EB0608ABFB027C06FB83
:2005400002CC0BFB03CCC01B71EB0C01C1E70B46024641464846BDE8F08B13B5084318BF54
:200560004FF0FF300146AFF30080BDE81C4070471CB50C46064B7B4469460090204600F024
:200580002EFB04460020694600F03CFB20461CBD8B06000070B5064600F00CFA0468054604
:2005A00030460A22002100F0BDFD2C6070BD00000A460146014800F03ABE0000F81900201C
:2005C0000B4910B5A1F17C020A4CC2E93712372106E000EB104342F82130074B00FB034011
:2005E0000B1EA1F10101F4DC10BD0120E8E70000A01A0020E119D666CD0D010010B50020E1
:2006000000F0BBFEFFF77CFEBDE81040012000F0C3B90B460146184600F098BE40EA0103D5
:2006200010B59B070FD1042A0DD310C808C9121F9C42F8D020BA19BA884201D9012010BDA6
:200640004FF0FF3010BD1AB1D30703D0521C07E0002010BD10F8013B11F8014B1B1B07D1FE
:2006600010F8013B11F8014B1B1B01D1921EF1D1184610BD10B5431C02E010F8011B71B1F0
:200680008107FAD14FF0013202C88C1A8C4314EAC211F9D0C01A0A0603D0C01E10BDC01A7A
:2006A00010BD0A0401D0801E10BD0902FCD0401E10BD032A40F2308010F0030C00F015807E
:2006C00011F8013BBCF1020F624498BF11F801CB00F8013B38BF11F8013BA2F1040298BFE5
:2006E00000F801CB38BF00F8013B11F0030300F06780083AC0F0088051F8043B083A51F8A0
:2007000004CBA0E80810F5E7121D5CBF51F8043B40F8043BAFF30080D20724BF11F8013B22
:2007200011F801CB48BF11F8012B24BF00F8013B00F801CB48BF00F8012B7047431A28BFA7
:200740009A427FF6B6AF10441144032A40F2268010F0030F1EBF11F8013D521E00F8013D59
:2007600010F0030F7FF4F6AF11F0030300F06D80083AC0F00B8051F8043D083A51F804CD08
:2007800040F8043D40F804CDFFF7F3BF121D5CBF51F8043D40F8043DAFF30080D20724BF04
:2007A00011F8013D11F801CD48BF11F8012C24BF00F8013D00F801CD48BF00F8012C70471C
:2007C00010B5203AC0F00B80B1E81850A0E81850B1E81850A0E81850203ABFF4F5AF5FEAE3
:2007E000027C24BFB1E81850A0E8185044BF18C918C0BDE810405FEA827C24BF51F8043B44
:2008000040F8043B08BF7047D20728BF31F8023B48BF11F8012B28BF20F8023B48BF00F846
:20082000012B7047431A28BF9A427FF6C9AF1044114410F0030F1EBF11F8013D521E00F881
:20084000013D10F0030F7FF4F6AF103AC0F00A8010B531E9185020E91850103ABFF4F9AF4F
:20086000BDE81040530724BF31E9081020E9081044BF51F8043D40F8043D12F0030F08BF12
:200880007047D20728BF31F8023D48BF11F8012C28BF20F8023D48BF00F8012C70474FF0DC
:2008A000000200B5134694469646203922BFA0E80C50A0E80C50B1F12001BFF4F7AF090744
:2008C00028BFA0E80C5048BF0CC05DF804EB890028BF40F8042B08BF704748BF20F8022B95
:2008E00011F0804F18BF00F8012B70470000000030B44FF0013C50F8042B51F8043BCCFA51
:2009000052F4D51A20D1FCB950F8042B51F8043BCCFA52F4D51A17D1B4B950F8042B51F8ED
:20092000043BCCFA52F4D51A0ED16CB950F8042B51F8043BCCFA52F4D51A05D1002CDAD0D3
:2009400030BC4FF00000704729BAB1FA81F111F01801D1F120008440F2D1CA40CB4012F01B
:20096000FF0213F0FF0330BCD01A7047704770477047000070B5064C7C44064D7D4404E090
:200980002046016808448047241DAC42F8D170BD80A6030088A6030001491820ABBEFEE726
:2009A0002600020000487047101B002000487047281B002000487047081B002070477047B3
:2009C0007047704738B504460A4600206946AFF30080002808BF38BD02460099204600F016
:2009E000FFFC012038BD012001F004BAF8B5AFF30080054600200C46102000BF0646A8198E
:200A0000A0420DD9324669460020AFF30080070008BF01F0EFF90098A04218BF0546C41985
:200A2000FFF7C0FF05600746F01D20F007004619284600F00AF8B44208BFF8BDA21B3146C6
:200A40003868BDE8F84000F0CBBC00210160C0E9011070471020704710B5FFF7ABFF0068FB
:200A600010BD10B50446FFF7A5FF046010BD70B5044685690068C10601D5302600E02026F1
:200A8000C00707D070BDD4E9012130469047206A401C20626D1EF6D570BD70B50446856917
:200AA0000078C00707D170BDD4E9012120209047206A401C20626D1EF6D570BD09684A0551
:200AC00001D540B27047C905FCD500B2704709684A0501D5C0B27047C905FCD580B2704748
:200AE00070B50C460546012A05D02878800600D5EA69002302E0012305E05B1C934202D2B8
:200B0000E05C0028F9D1A869E618C01AA861286A184428622846FFF7AAFF04E0D5E901216C
:200B200014F8010B9047B442F8D32846FFF7B5FF70BD00002DE9F0410646002410687529F3
:200B4000314616A510D0FFF7B9FF002802DA404213A507E031688A0701D512A502E04907C7
:200B600004D511A5012401E0FFF7B1FF00210A2206F1240709E0B0FBF2FCB0FBF2F302FBBC
:200B80001C00303078541846491C0028F3D123462A463046BDE8F04100F08ABC0000000003
:200BA0002D0000002B0000002000000011680268006A530501D508700AE0D30501D50880AA
:200BC00006E0130603D5C217C1E9000200E008600120704701694A1C02610878704700B57A
:200BE0008FB0CDE901310021059105497944CDE903101146684600F029F90FB000BD0000B0
:200C0000E5FFFFFF0A6802F8010B0A60704700002DE9FF5F15468A460446DFF8AC80F84431
:200C20000027D8E900103E46CDE9001010E05AF826106A4602A801F07BF8411C07D021786F
:200C4000890603D5E269391891420DD80744761C2078800602D5E069B84205DDAE42E6DB31
:200C60005AF826000028E2D1A069C01BA0612046FFF7FDFED8E90010CDE90010002017E037
:200C80005AF828106A4602A801F052F8B0F1FF3F81460BD000250DF1080B05E0D4E90121BA
:200CA0001BF8050090476D1C4D45F7D308F10100B0428046E4DB206A384420622046FFF70B
:200CC000ECFEBDE8FF9F00001E4E03002DE9F0418046D21D22F007020025D2E90002F52961
:200CE00015A614D0011E72F1000106DA0023D0EB030063EB020211A608E0D8F800108B07AE
:200D000001D50FA602E0490701D50EA601251146002408F1240704E000F07CFB30323A558B
:200D2000641C50EA0102F7D12B46324621464046BDE8F04100F0BCBB000000002D000000EE
:200D40002B0000002000000030B4002100F1240408E002F00705D208303542EA4372DB0841
:200D60006554491C52EA0305F3D10468002310A2250708D504F020040C4304D0C469012377
:200D80000CA2641EC46130BC00F092BB10B5044621461068FFF79BFE02462046BDE81040B5
:200DA0000023D1E7D21D22F00701D1E90023CBE70000000030000000F0B40D460188090502
:200DC00002D5214C7C4402E01F4C7C440E34002100F1240608E002F00F071209E75D42EA09
:200DE00003721B097754491C52EA0307F3D102780023120704D5702D06D009B102231134FA
:200E00002246F0BC00F054BB01231034F8E770B504460D4621461068FFF759FE02462946D3
:200E20002046BDE870400023C6E7D21D22F00703D3E90023C0E70368126843F020030360F8
:200E40000823C3610023B7E7804C03002DE9F05F894604464FF0000ADFF874B1FB44C0F8F9
:200E600020A02046E1688847002874D0252806D0D4E901219047206A401C2062F1E7002689
:200E80005F462046E16888472028054607DB312D05D2781910F8200C08B10643F1E7B0072F
:200EA00001D526F00406C4F81CA00027C4F818A02A2D09D0284633F07BFE38B304EB870886
:200EC000303DC8F8185019E059F8041B204604EB87029161E1688847012F054618D1E0697F
:200EE000002820DA26F020061DE0D8F8180000EB800005EB40003038C8F818002046E16825
:200F00008847054633F054FE0028EED1012F0AD02E2D08D12046E16888477F1C0546022F88
:200F200046F02006C4DBA069002803DA404246F00106A061F00701D026F010066C2D0BD080
:200F4000682D09D04C2D39D06A2D35D0742D35D07A2D33D016E038E0E1682F4620468847B4
:200F6000B842054609D16C2F26D04FF48060E168064320468847054604E06C2F1AD04FF4E0
:200F8000807006430DB3A5F14100192802D8203546F400664A462946204626604E46FFF7FC
:200FA0004DF980B101280BD0F61D26F0070000F1080956E74020E4E78020D8E70020D6E7E0
:200FC00006F104094DE7284652E7206ABDE8F09F104C03002DE9F05F824615468B46002795
:200FE0000AF10104B9460078302801D09DB113E014F8010B0127782803D0582801D045B116
:201000000AE00DB1102D07D1002714F8010B102502E0082500E00A250026B0460EE005FB77
:20102000080005FB06F101271FFA80F801EB1046B6F5803F00D3B94614F8010B294600F003
:2010400049FE0028EBDABBF1000F05D00FB1641E00E05446CBF80040B9F1000F06D0FFF788
:20106000A9FC02210160C81EBDE8F09F48EA0640FAE700000FB40B0010B54FF000048AB0C4
:201080000FA900910E99CC60234C7C44234A7A44CDE9064200D004236FF00042CDE901325B
:2010A0001F4A7A446B4608920246002034F0AAFC0AB010BC5DF814FBF0B507464FF0FF3042
:2010C0001E4615460C463B4685B06A460091CDE9010131460020049004A8FFF7CBFF04991C
:2010E0000346601825B109B1024600E022462A6000290ED0002B02DD0099814209D03B46BE
:201100006A463146001B0094CDE9010404A8FFF7B1FF05B0F0BD0000630C00007D0C000092
:20112000F90300002DE9F04791460F4680460446002614F8015B2DB1FFF730F90068405D9A
:20114000C007F6D12B2D02D02D2D18D0641E4A4639462046FFF73EFF27B13968A14201D13D
:20116000C7F800804FF0020471050BD54042002803DDFFF71FFC0460A007BDE8F08746F499
:201180008066E4E70028F8DAFFF714FC04606FF00040F2E770B50646484231EA00000FD0CD
:2011A0002A20741C00253070FFF700FC0346002253F82500010F000109292BD957312AE0EA
:2011C000042913D004DC012908D0022904D109E008290FD0102911D0002070BDFFF7E6FBE6
:2011E00000680EE0FFF7E2FB40680AE0FFF7DEFB806806E0FFF7DAFBC06802E0FFF7D6FBFB
:20120000006928B120F0030050F8041C084470BD4CA070BD3031521C082A04F8011BC9D3CA
:201220006D1C052DC3DB00202070304670BD09B14B0901D00020704722B113782A2B02D0C7
:2012400000F034B8A6E7AFF300802DE9F0410F468046541C00250026314614F8010BA0F1C6
:201260003002092A03D9A0F16103052B16D8392801D8104600E05738491C082940EA06163F
:20128000EBD30120A840384203D0FFF78FFB40F825606D1C052DDEDB207810B10020BDE86B
:2012A000F08139464046BDE8F04173E72DE9F0410C460646154688070AD51146224878445D
:2012C00033F0E4FC071EEAD0FFF770FB7F1C4760E0070AD029461C4878441A38AFF30080C5
:2012E000071EDCD0FFF762FB076060070AD52946154878443438AFF30080071ECFD0FFF74D
:2013000055FB876020070AD529460F4878444E3833F0D2FC071EC2D0FFF748FBC760E0069A
:201320000AD52946084878446838AFF30080051EB5D0FFF73BFB056121463046BDE8F041A4
:2013400028E7ACE7430000001A9D03002DE9F041074615460E461020FFF73CF804000AD073
:201360006760C4E9026500F037F80168216004600020BDE8F0810120FBE710B500F022FD18
:20138000BDE8104000F019BD4FF000020429C0F0128010F0030C3FF484AACCF1040CBCF1F8
:2013A000020F18BF00F8012BA8BF20F8022BA1EB0C01FFF776BA5FEAC17C24BF00F8012B29
:2013C00000F8012B48BF00F8012B704700487047081B00207047000000487047401B002094
:2013E000034640688C46002818BF88423CBF03464068F8D318681844884207D00CF103002D
:2014000020F00700001D411A521A0146081D0A60FFF70FB830B5B0F10A0271F100034FEA0E
:20142000900E4EEA817EB0EB0E0061EB91014FEA101E4EEA017E10EB0E0041EB11114FEAA2
:20144000102E4EEA016E10EB0E0041EB11214FEA104E4EEA014E10EB0E0041EB1141401843
:2014600041F100014FEAD00040EA41704FEAD1014FEA810444EA907410EB800544EB0104A6
:201480006D1944EB0404521BA3414FF0000348BF0A3200D530BD401C41F1000130BD10B5B6
:2014A0000446FEF77BFF0068005D00F0010010BD2DE9F0470D4699469246044600F1240832
:2014C0000168880604D5E06921F01001216000E00120A84201DD471B00E00027A1697A1981
:2014E00002EB0900081AA0612078C00602D42046FFF7BDFA002608E0D4E901211AF8060087
:201500009047206A401C761C20624E45F4DB2078C0060AD52046FFF7AAFA06E0D4E9012196
:2015200030209047206A401C2062381EA7F10107F4DC07E0D4E9012118F805009047206A1A
:20154000401C2062281EA5F10105F3DC2046FFF7A4FA2078000602D50220BDE8F08701202E
:20156000FBE72DE9FF4F0C461E464FF0FF378BB0D2E90001DDF860800A908A46C1F30A55D1
:2015800005B93D46002108464FF00000BAF1000F00F4400005DA00EB80004FF4400101EAB5
:2015A00050004FEA9059B9F1010F00DDB9460A9850EA4A000ED044F61050A5F2FF35454332
:2015C0002F14B8F1000F1ED07542291E1EDDC9F100021CE0B8F1010F4FF0000001D0302157
:2015E00003E0F24305E02154401CB042FBDB30460022002121540B99C1F80880C1E9002078
:201600000FB0BDE8F08FBD1B6D1CDEE74A4600DA694206A800F0D6FE06AB93E8070003AB59
:2016200083E8070050460A9932F051F88DE80700A0F500501F3800900398002D0ADD42F269
:201640001F014A460844002303A90390684632F0FDFA09E0A0F500504A461F38002303A9E1
:201660000390684632F01CFB8DE807000004000C03D04FF0FF30410800E01046B8F1000FEC
:2016800003D00022009215461EE0751E05D4FFF7C1FE303262556D1EF9D5B3460122084370
:2016A00002D000227F1C04E02078302801D100227F1E002A099784D01DE0112D07DAFFF706
:2016C000A9FE303262556D1C50EA0102F5D1084302D00098C8B10EE00021681E05E0235C97
:2016E000625C63542254401E491C8142F7DBAB46A81B401E0990002004F80B000B98099A8F
:20170000C0F80880C0E9002B7AE711264FF0000857E72DE9F04F88460446D21D22F0070122
:2017200091B0D1E90001CDE90A0132F005FC02460B98C00F01D02D2007E02068810701D524
:201740002B2002E0202101EAC000032A099001D0072A05DB03464146204600F077FB0BE144
:201760002078800601D5E06900E00620B8F1650F814606D0B8F1660F18D0B8F1670F70D106
:2017800031E00020B9F1110F009001DB112301E009F101030AAA01A90CA8FFF7E2FEDDE921
:2017A0000C70002609F10105834647E001204B4600904FF000470AAA01A90CA8FFF7D1FEF8
:2017C000DDE90DB00C995D46002610B909F101000D18B9EB050003D4C0F1FF3609F10105C9
:2017E000A5EB09002BE0B9F1010F01DA4FF001090020B9F1110F0090484601DD112300E06D
:2018000003460AAA01A90CA8FFF7ABFEDDE90C704D4600268346207800070AD4AB4500DAC3
:201820005D4601A8012D04DD411911F8011C302907D04F4502DA17F1040F04DA012082464B
:201840000FE06D1EEEE7002F02DCED1B3E4403E0781CA84200DD7D1CB81B00F1010A4FF0BD
:2018600000472078000703D4AA4501DB4FF0FF3A0021B7F1004F0DF143088DF8431024D03B
:2018800002202B23002F01DA7F422D230A21021EA0F1010000DC5FB197FBF1FC97FBF1F200
:2018A00001FB1C7C17460CF1300C08F801CDEEE7A8F1010003702188090501D5452100E07B
:2018C0006521A0F1010800F8011C09980FA9A1EB0807FF1D00B10120411901EBEA70A16947
:2018E0003844081A401EA0612078C00602D42046FFF7BDF8099828B1D4E901219047206AEC
:20190000401C20622078C00622D52046FFF7AFF81EE0002E04DBB34502DD01A8805D00E049
:201920003020D4E901219047206A401C2062761CAAF101005FEA000A0AD1FFF737F8C06890
:201940000168405CD4E901219047206A401C2062281EA5F10105DCDC07E0D4E9012118F8F4
:20196000010B9047206A401C2062381EA7F10107F3DC2046FFF791F8032011B041E6000067
:201980002DE9F04F04460D46D21D22F0070089B0D0E900974846394632F0CEFA0246F80F7E
:2019A00001D02D2307E02068810701D52B2302E0202101EAC0038DF820300BB1012000E088
:2019C0000020032A824601D0072A04DB2946204600F03CFA3FE12078800601D40D2500E0F1
:2019E000E569C7F30A560D2D49DA00214FEA175B08464FF00000002F00F4400007DA00EB9A
:201A000080004FF4400100EBD07001EA60008115012901DD4FF0FF3100224FEA850CBCF1A6
:201A2000180F06D31346ACF118004FF08052C24003E04FF4801323FA0CF30CF10C0CBCF1EE
:201A4000200F04D3ACF1200C09FA0CF001E007FA0CF000294FF0004801DD18B90FE00ED1AD
:201A600040450CD319EB02095F4121B9404502D19F4329EA0209BBEB175F00D0761C2088FB
:201A8000000502D57B48784402E07A487844193808AA302302F80A30037C0AF10101002E57
:201AA0000AF1020A53546A4602DC4FF0300101E04FF031014FF001088DF8001002D0A6F2E1
:201AC000FF3603E059EA470100D06B4E002D02DC2178090704D54FF002082E218DF801101F
:201AE000C44600210BE0C7F303433F01C35C491C6D1E02F80830052908F1010801DA002D17
:201B0000F1DC00210CE000EB1973491C1B786D1E082902F808304FEA091908F1010801DA56
:201B2000002DF0DC21688B0602D516E0A8F10108E04505DD02EB080313F8013C302BF5D0BC
:201B4000B8F1000F09DD02EB080313F8013C2E2B03D1090701D4A8F10108002D05DD3E2185
:201B600002F808106D1E08F10108407C002E02F8080008F1010804DA2D20764202F80800F3
:201B800002E02B2002F808000A214FF47A70864208F101080BDB96FBF0F3303302F8083005
:201BA00096FBF0F308F1010800FB136601E0642E0CDB642096FBF0F3303302F8083096FBC3
:201BC000F0F308F1010800FB136601E00A2E06DB96FBF1F0303002F8080008F1010896FB4B
:201BE000F1F001FB1060303002F80800A16908F1010808EB050202EB0A00081AA06120787E
:201C0000C00602D42046FEF732FF216A08AE01EB0A00206204E0D4E9012116F8010B90472F
:201C2000BAF1010AF7D22078C00602D52046FEF71EFF6E4609E016F8010B3E280FD0D4E9BF
:201C400001219047206A401C2062B8F10108F2D22046FEF722FF09B00320BDE8F08F206AA7
:201C60002844206203E0D4E90121302090476D1EEBD3F8E72D40030002FCFFFF10B5436988
:201C800013B1AFF3008001E0FEF72AFF012010BD127800F124010A7000224A700122EDE784
:201CA00011684FF0FF32E9E710B5436913B1AFF3008001E0FEF7ACFF012010BD126800F13A
:201CC00024014262002282620122EDE711684FF0FF32E9E73A2800D2303820F02002412A4C
:201CE00001D3A2F13700884201D34FF0FF307047426842B1016811F8013B23B1521EC0E94B
:201D00000012184670470121C160881E704742685AB1C368016843B983688B4205D0491EC3
:201D2000521CC0E90012002070474FF0FF3070472DE9F04116460C460546FEF72FFB0368B4
:201D400093F80101012807D0FF2C12D8185D80B101202C70BDE8F081D3F8070132462146B6
:201D600003F20713C7182846BC46BDE8F041012360474FF0FF30EDE72DE9F0410646FFF799
:201D80002BFB8046454613E016B1E068B0420ED120682860D4E90101D8F8007088472046B5
:201DA000FEF747FBD8F80000B842EBD100E025462C68002CE8D1BDE8F081002801D0FEF79E
:201DC000EBBD704710B5002102A000F076FB012010BD0000534947414252543A2041626E56
:201DE0006F726D616C207465726D696E6174696F6E00000010B500F079FBBDE81040FFF7EA
:201E0000DCBF7546FFF7E2FAAE4605006946534620F00700854618B020B5FEF7ADFABDE899
:201E200020404FF000064FF000074FF000084FF0000BAC46ACE8C009ACE8C009ACE8C0091D
:201E4000ACE8C00921F007018D4670472DE9F0411F46044603260168072A01F4006004DB95
:201E600008B116A505E016A503E008B115A500E015A521F010002060A069C01EA0610FB115
:201E8000401EA0612046FEF7F2FD4FB1D4E9012138469047206A401C2062C01C206206E0B9
:201EA000206AFAE7D4E9012115F8010B9047761EF8D22046FEF7F1FDBDE8F0814E414E004E
:201EC0006E616E00494E4600696E66002DE9FF4F06468BB00878FF2806D0491C2D2805D0B4
:201EE00000244FF0000908E000200CE00124F8E709EB8903491C00EB43090878FF28F7D1F3
:201F000014B1C9F100008146107800252C46AA4629462D2801D02B2804D1521C2D2813D009
:201F2000002082468B461078FF280FD04FF0000C0A21521CA5FB017804FB018105FB0C11BF
:201F4000C5194BEB0104EEE70120EAE7002108464FF00000BAF1000F02D000EB80004008B4
:201F6000C0F38157012F01DD4FF0FF370E9955EA040009EB01080BD04FF0020918F5FA7FC1
:201F800016DA4FEACA70002F706008DD012007E04FEACA70C6E900B00FB0BDE8F08F00201D
:201FA0003060FEF707FDC0F800901821084616E0B8F5FA7F18DD002F02DAF748784401E0D1
:201FC000F6487844D0E90010C6E9001040EACA707060FEF7EFFCC0F80090142108460FB0E1
:201FE000BDE8F04F33F0A7BC002108464FF00000B8F10001099002DAC7F1000200E03A4690
:020000040800F2
:2020000001DAC8F1000106A800F0DCF906AB93E8070003AB83E8070044F23E005BEA0401A7
:202020000090584604D144F21E012C465D460091210C0904014306D10099240444EA154405
:202040002D041039009104F07F41014306D10099240244EA15642D020839009104F070419A
:20206000014306D10099240144EA15742D01091F009104F04041014306D10099A40044EAEE
:202080009574AD00891E009104F00041084304D100986D196441401E00904FF001033A4689
:2020A0006846B8F1000FCDE9014503A902DD31F00CFE01E031F0DFFDBAF1000F04460D46D3
:2020C00001D084F00044002108464FF00000099940F2FF77484010F00C0F07D124F00040B0
:2020E000284303D0C4F30A50B84212D1FEF762FCC0F80090C4F30A50B8420AD1A848784487
:20210000D0E90010C6E9001004F000410843706042E7C6E900543FE72DE9FF4F1F464FF08D
:20212000000A4FF0FF38454691B0D7E90146CDF83CA0FEF73BFCC0680168405C1090B96990
:2021400012986D1C8847396A814688470028F6D1B9F1FF3F0AD0002E24F4D06411DDB9F181
:202160002B0F08D0B9F12D0F0BD102E0404615B013E744F48064B96912986D1C8847761E90
:202180008146600504A901D52D2000E02B20002E01F1010B0DF130088DF810003FDDB9F15B
:2021A000690F08D0B9F1490F05D0B9F16E0F02D0B9F14E0F1CD13B4601A8009580E8500292
:2021C000DDE912126FF0020033F020FCC11CCED10EE0B96912986D1C884781461398761EE1
:2021E00044F4007405600F98401C002E0F9016DDB9F1300FEDD0B9F1780F02D0B9F1580F51
:202200000DD10F9801280AD13B46CDE90054DDE91212001F029633F0F7FBC11CA7D11099F6
:2022200089453ED144F0800406E01399681CAAF1010A44F400740860B9696D1C1298761E50
:20224000884730288146F0D02BE01099894505D1200603D4761E44F0800418E0484632F087
:20226000A7FC08B3761E0DF123029345A9F1300044F4007406D20BF8010B200607D5AAF177
:20228000010003E0200602D40AF101008246A00502D51399681C0860B96912986D1C884762
:2022A0008146002ED1DC53E0002E51DDB9F1650F02D0B9F1450F4BD1A00549D5B9696D1C75
:2022C0001298761E24F440748847002E81460CDD2B2804D0B9F12D0F07D144F48074B96914
:2022E00012986D1C8847761E8146E00501D52D2100E02B2108F8011BCDF8008021E0761E56
:202300000DF13901884544F400740CD2A9F1300010F0FF0088F8000002D10099884509D9CA
:2023200008F1010806E0E00501D51E4801E042F20F708246B96912986D1C884781461398A2
:202340000560002E04DD484632F032FC0028D6D1F96912988847FF2053468BF8000088F8C6
:20236000000000200A900B9004AA0CA90AA8FFF7ADFDA00502D46FF00100F8E614F0240F63
:2023800012D0E0071CD13868DDE90A12031D3B600068C0E9001213E0F88E0300EA8E030030
:2023A000AE8D0300F1D8FFFF0AA9684632F042FBE00705D13868009A011D396000680260E0
:2023C0002846D4E62DE9F047814616468AB0354878440DC88DE80D0032487844801C03AC1A
:2023E0000DC884E80D0041F69B300844372190FBF1F290FBF1F5A5F1800501FB12041B3C86
:2024000002D56442012000E00020DFF898A080460027FA44AAF1BE0A0EE0E0070AD032465A
:20242000684607EB470101230AEB810131F038FC8DE8070064107F1C002CEED1194F7F4423
:20244000AE3F19E0E80715D007EB04100DF1180A90E80E008AE80E00C068F04201D19819B9
:2024600008903246012306A903A831F019FC03AB83E807006D10641C002DE3D14FF0010357
:2024800032466946B8F1000F03A802D031F0DEFB01E031F005FCC9E90001C9F808200AB08D
:2024A000BDE8F0877437030010B50446AFF300802046BDE81040FDF731BF70B505460C4620
:2024C0000A2000E06D1C00F039F835B128780028F8D102E0641C00F031F814B120780028D1
:2024E000F8D1BDE870400A2000F028B810B5012805D0002103A0FFF7E0FF012010BD09A1D0
:20250000F8E7000053494752544D454D3A204F7574206F662068656170206D656D6F727976
:20252000000000003A2048656170206D656D6F727920636F727275707465640008B56946A6
:202540008DF800000320ABBE08BDB2F120030AD5C2F1200301FA02F120FA03F341EA0301FD
:2025600000FA02F0704700FA03F14FF0000070472DE9FF4F1F464FF03C0987B04FF00042CF
:20258000DDE9141001F10108DDF858A002EA40500390002005908346054604460490B969B1
:2025A000461E08988847AAF1010A0290BAF1000F3BDD02982E2815D01021FFF78BFB002894
:2025C0002EDB4FF0010B0599014317D0B9F1000F0BDB4A46C117FFF7B8FF05430C43A9F1F9
:2025E000040905E0012004900BE008B145F0010501200590049820B9361D02E0049800B1A8
:20260000361FB969089808F101088847BBF1000FAAF1010A0290C9D00999C1F80080C5E7BF
:202620000298702808D0502806D0F96908988847BBF1000F14D04FE0002002900120BBF124
:20264000000F049009D0B969089808F101088847AAF10109B9F1000F07DCF9690898884759
:202660006FF001000BB0BDE8F08F2B2804D02D280CD14FF0FF300490B969089808F10108FC
:202680008847A9F10109B9F1000FE6DD411CE4D00A21FFF71FFB0028DFDB029908F1010880
:2026A00001EB810100EB41000290B969089888470A21FFF70FFB099AA9F10109B9F1000F32
:2026C000C2F8008001DD0028E7DAF969089888470499029800FB016655EA040004D004F084
:2026E0004041090002D006E0039898E0A40044EA9574AD00B61E04F00041080002D16D1993
:202700006441761E159810F0240F03D04FF00B095C4803E04FF028096FF07D008246564544
:2027200007DAAAEB06018944B9F1410F01DD4FF0410901200021A9F10102FFF706FF0246CC
:2027400028400B462140084301D0012100E00021501E029143F1FF3128402140084301D0D6
:20276000012000E000200299834651EA0B014FD0002108464FF00000039900F4400039B106
:2027800000EB80004FF4400100EBD07001EA60008015012802DD4FF0FF3000E013D0401CAA
:2027A00036D0029860B3BBF1000F0CD14A4601200021FFF7CAFE28402140084301D0012038
:2027C00000E00020E0B101204A460021FFF7BDFE034640190A4661412D1A8C4111D3B9F1AF
:2027E000400F09DD159810F0240F02D0AAF1340603E0AAF1170600E0761C00254FF0004468
:2028000006E05B1E42F1FF3220EA030521EA0204CAF10100B04206DA1B4903980843019069
:20282000002000900EE0039AC4F3D321E80A0A43164940EA44500A433146CDE9000268462C
:2028400032F0ACF9159810F0240F0BD01598C00715D13868DDE90012031D3B600068C0E958
:2028600000120CE002A8694632F0E4F81598C00705D13868029A011D396000680260404676
:20288000F0E6000002FCFFFF0000F07F0000F03F2DE9FF4F92461D4685B04FF00041DDE9AE
:2028A000124BDDE914727F1E01EA4B50414940F0FF4940EA0108002122F0200049280491BE
:2028C00002D04E2828D04CE03BA0012607C88DE80700A9690698641C88477F1E014606D482
:2028E0001DF8060018B121F0200181420BD0E96906988847032E34D0082E32D06FF0010098
:2029000009B0BDE8F08F761C032E01D0082EE0D1601CCAF80000DCE7A9690698641C88475F
:202920007F1E2AD420F02000412826D1A9690698641C88477F1E20D420F020004E281CD149
:20294000A9690698641C88477F1E48F4002849F48009CAF8004001D4282806D0E9690698C4
:2029600088475FEACB7012D022E0A9690698641C88477F1E01D4002803DAE96906988847EB
:20298000BCE72928F1D1641CCAF80040E9E71BF0240F07D028680499031D2B600068C0E931
:2029A000001805E02868021D2A600068C0F800902046A5E70000F07F494E46494E49545966
:2029C0000000000080B586B004900391002002900190FFE70498006A012803D1FFE7022030
:2029E000059065E0049901200862FFE7FFE70498406A022803D1FFE70220059058E0049854
:202A00004068102804D1FFE74FF0E040029003E04FF000400290FFE704990220486203984C
:202A2000B0F800C08288049B196BDB6B02FB01C24088584300FB01200090029840F40031ED
:202A4000602008700098029941F4803108700098000A029941F480310870029840F4003153
:202A6000D020087004990120486204F00FFD0190FFE7049804F0F2FE402811D0FFE704F06C
:202A800005FD0199401AB0F1807F08D9FFE7FFE7049900200862FFE70320059008E0E8E777
:202AA000FFE7049900200862FFE700200590FFE7059806B080BD000080B592B010900F9141
:202AC0000E920D9300200C900B900A9009904FF480710891ADF81600FFE71098006A012883
:202AE00003D1FFE702201190A8E0109901200862FFE7FFE71098406A022803D1FFE7022079
:202B000011909BE010984068102804D1FFE74FF0E0400B9003E04FF000400B90FFE71099D0
:202B2000022048620F988088ADF81C000F980088ADF818000F984088ADF81A00FFE70D99B3
:202B40000020019041B1FFE70898A0F58070B0FA80F040090190FFE70198C007002862D033
:202B6000FFE7BDF81820BDF81C00109B196BDB6B00FB0122BDF81A00584300FB0120049004
:202B80001098806A099900FB01000A900B9840F40031002008709DF816100B9A42F4803283
:202BA00011709DF817100B9A42F48032117004990B9A42F4803211700499090A0B9A42F494
:202BC000803211700B9941F40032302111700390FFE70398132805D8FFE7FFE70398013021
:202BE0000390F6E7FFE70C980A9988420FD2FFE70B9800788DF80B009DF80B000E994A1C4F
:202C00000E920870FFE70C9801300C90EBE70998013009900D9801380D90109806A904F042
:202C200029FD08908BE7109901204862FFE7109900200862FFE700201190FFE7119812B0DF
:202C400080BD000080B590B00E900D910C920B9300200A9009900890079006904FF48071FE
:202C60000591ADF80A00FFE70E98006A012803D1FFE702200F90AFE00E9901200862FFE7CE
:202C8000FFE70E98406A022803D1FFE702200F90A2E00E984068102804D1FFE74FF0E04037
:202CA000089003E04FF000400890FFE70E99022048620D988088ADF810000D980088ADF8F5
:202CC0000C000D984088ADF80E00FFE70B990020009041B1FFE70598A0F58070B0FA80F07A
:202CE00040090090FFE70098C007002869D0FFE7BDF80C20BDF810000E9B196BDB6B00FB5B
:202D00000122BDF80E00584300FB012001900E98806A069900FB01000790089840F40031BE
:202D2000802008709DF80A00089941F4803108709DF80B00089941F4803108700198089904
:202D400041F4803108700198000A089941F480310870FFE70A98079988420BD2FFE70C981A
:202D6000411C0C91007808990870FFE70A9801300A90EFE7089840F400311020087004F0FE
:202D800085FB0990FFE70E9804F068FD40280CD0FFE704F07BFB0999401AB0F1807F03D929
:202DA000FFE703200F9017E0EDE70698013006900B9801380B900E9803A904F05BFC059092
:202DC00084E70E9901204862FFE70E9900200862FFE700200F90FFE70F9810B080BD0000D0
:202DE000FFE7FEE780B54BF62800C2F2000001F015FA80BD80B54BF62800C2F2000001F036
:202E00000DFA80BD80B54BF62800C2F2000001F005FA80BD84B08DF80F000291ADF80620C9
:202E20009DF80F000146009123281DD80099DFE801F012131415161B1B1B1B1B1B1B1B1B2E
:202E40001B1B1B1B1B1B1B1B1B1B1B1B1B1B1B1B1B1B1718191A08E007E006E005E004E0AC
:202E600003E002E001E000E0FFE7002004B070470020704780B582B04BF25850C2F2000084
:202E8000009046F2A421C2F20001002201920AF053FC009845F6A421C2F200010AF032FC7D
:202EA000019802B080BD000080B584B00390029103994BF25850C2F2000001900AF022FC1D
:202EC00001980AF0D9FB002004B080BD83B0029001918DF8032000208DF802009DF902003C
:202EE00003B0704780B586B00490ADF80E1000208DF80D004BF25850C2F20000D0F8BC02D5
:202F000002900298D0F8140220B1FFE701208DF8170013E00499BDF80E204BF25850C2F227
:202F2000000001900AF008FC01980AF0EDFC8DF80D009DF80D008DF81700FFE79DF8170024
:202F400006B080BD80B54BF62810C2F2000001F065FF80BD80B54BF6F010C2F2000001F06F
:202F60005DFF80BD80B54BF66000C2F2000001F055FF80BD80B54BF65420C2F2000001F01D
:202F80004DFF80BD80B54BF6C400C2F2000001F045FF80BD80B54BF68C10C2F2000001F091
:202FA0003DFF80BD82B001900198007810384AF6AB21CAF6AA21A0FB011000090090009907
:202FC00045F67830C0F60300405C019908660098042807D3FFE701990868042262F309009F
:202FE000C86506E00199086840F2FF329043C865FFE70198C06D02B07047000086B0059071
:20300000002004900598806A03900598806900BBFFE703980290032819D80299DFE801F01F
:20302000020C0216059890F82F00C00718B1FFE701200490FFE70BE00598C06AB0F1C07F73
:2030400003D1FFE701200490FFE701E000E0FFE740E005988069B0F5005F22D1FFE7039856
:20306000019003281BD80199DFE801F00205020F0120049014E0059890F82F00C00718B1AA
:20308000FFE701200490FFE70AE00598C06AB0F1C07F03D1FFE701200490FFE700E0FFE703
:2030A00017E003980090032804D3FFE70098032803D00CE0012004900AE0059890F82F0091
:2030C000C00718B1FFE701200490FFE700E0FFE7FFE7FFE7049806B07047000084B003907D
:2030E00002910192009303980168086820F48020086000980399096848600398806840284F
:2031000009D1FFE70198039909688860029803990968C86008E00298039909688860019882
:2031200003990968C860FFE704B070477047000081B000900098016841F21802885820F053
:203140000200885001B0704781B000900098016841F21802885840F00200885001B07047CC
:2031600081B000900098016841F21802885820F40050885001B0704781B0009000980168FA
:2031800041F21802885840F40050885001B0704782B00190019840F62061C2F20001096805
:2031A000C90844F6D352C1F26202A1FB0221890948430090FFE700BFFFE70098411E009149
:2031C0000028F8D1FFE702B07047000080B584B00390002002900398026841F2180101911E
:2031E000505840F48010505003980068405802900120FFF7CDFF019A029803990968885099
:2032000004B080BD80B54BF6B820C2F2000002F07BFF80BD80B584B0039002910192029856
:2032200060B1FFE70298082808D0FFE70298102804D0FFE70298182801D1FFE708E049F2CE
:203240007030C0F6030040F63C0121F0E9F9FFE70198808800900098029948F24002C4F233
:20326000020288500198006800900098029948F24402C4F20202885004B080BD80B5B6B010
:203280003590349100200690349848B1FFE735994FF40060C86035994FF480408860FFE70B
:2032A00000201790189019901A901B901C903598C06920B9FFE74FF480601D9002E000206E
:2032C0001D90FFE74FF400701E90002002901F902090219022902390402124912590269052
:2032E0002790289029902A902B902C90802101912D912E902F903090319032903390359834
:20330000006800680690069848F20F11CFF62071084006901798189B199A1A9918431043A5
:20332000084335998A68C96810431B9A10431C9A104308431D9908431E9908431F9908439C
:20334000209908432199014306980843069006983599096808603598006800680690012053
:20336000049002F0DBF904980699359A126811602299DDF88CC0249B259A41EA0C01194310
:203380001143269A1143279A1143289A1143299A1143359A12685160359909684968069102
:2033A00002F0BCF904980699359A126851602A99359A126891602B99359A1268D160359928
:2033C00009688969069106994FF6417211400691DDF8B0C02D992E9B2F9A41EA0C41194303
:2033E0001143309A1143319A0A430699114306910699359A12689161359909688969069117
:2034000002F08CF904980699359A126891613299339A1143359A1268D16135990968C969E7
:20342000069102F07BF9019A02990498069BDDF8D4C0DCF800C0CCF81C3007914FF00073C5
:20344000089309914FF4001CCDF828C00B910C910D910E914FF0040CCDF83CC010934FF4BF
:20346000803311934FF4800312934FF4005313931492159116913599096841F2180203923A
:2034800089580691069943F62373CFF6DE03194006910799DDF820E0DDF824C00A9B41EAB2
:2034A0000E0141EA0C0119430B9B19430C9B19430D9B19430E9B19430F9B0B430699194368
:2034C00006910699359B1B689950359909688958069102F023F9039B04980699359A126893
:2034E000D1501099DDF844C0129B139A41EA0C0119431143149A1143159A41EA8201169AD8
:20350000114341F40001359A13684FF4805205929950359909688958069102F0FFF8059A03
:2035200006983599096888503598806901280BD1FFE73598016841F21C0288584023C0F2B9
:20354000010318438850FFE7359842690021FFF761FE36B080BD000080B582B00190002025
:20356000009001980168086820F00400086001980068006800900120FFF70AFE0098019983
:203580000968086002B080BD80B582B001900020009001980168086840F004000860019814
:2035A0000068006800900120FFF7F2FD009801990968086002B080BD80B582B00190002093
:2035C000009001980168086820F00800086001980068006800900120FFF7DAFD0098019950
:2035E0000968086002B080BD80B582B001900020009001980168086840F0080008600198B0
:203600000068006800900120FFF7C2FD009801990968086002B080BD81B0EFF3108072B6AF
:203620000090FFE7FEE7000080B582B00190009101980099002200F003F802B080BD000078
:2036400084B0039002918DF8072001208DF8060000208DF805004BF21050C2F20000407A03
:20366000002827DCFFE74BF21053C2F200030093597A0020585403995A7A03EB820251601D
:203680009DF807105A7A1A441172597A4A1C5A728DF805109DF805103031029A1170029A66
:2036A0003A215170029A2F2191700299C8708DF80600FFE79DF8060004B0704780B584B04E
:2036C0000390029101920020009002980068FF2801D8FFE708E049F2FC40C0F6030040F24F
:2036E0005A2120F09DFFFFE702984068FF2801D8FFE708E049F2FC40C0F6030040F25B21CF
:2037000020F08EFFFFE702988068FF2801D8FFE708E049F2FC40C0F603004FF4177120F0CB
:203720007FFFFFE70298C068FF2801D8FFE708E049F2FC40C0F6030040F25D2120F070FF36
:20374000FFE70198102804D1FFE70398C068009003E00398C06A0090FFE70020009002993B
:2037600008684B688A68C96840EA032040EA024040EA01610098084300900198102804D1A5
:20378000FFE700980399C86003E000980399C862FFE7002004B080BD80B584B00390029120
:2037A00001920020009002980068FF2801D8FFE708E049F2FC40C0F603004FF4097120F0F9
:2037C0002FFFFFE702984068FF2801D8FFE708E049F2FC40C0F6030040F2252120F020FFEE
:2037E000FFE702988068FF2801D8FFE708E049F2FC40C0F6030040F2262120F011FFFFE7E4
:203800000298C068FF2801D8FFE708E049F2FC40C0F6030040F2272120F002FFFFE70198DE
:20382000102804D1FFE703988068009003E00398806A0090FFE700200090029908684B6836
:203840008A68C96840EA032040EA024040EA01610098084300900198102804D1FFE7009869
:203860000399886003E0009803998862FFE7002004B080BD80B584B003900291002001908C
:2038800002980068102806D0FFE702980068B0F5807F01D1FFE708E049F2FC40C0F60300BC
:2038A0004FF4F47120F0BCFEFFE70298406828B1FFE702984068022801D1FFE708E049F268
:2038C000FC40C0F6030040F2E91120F0A9FEFFE70298806828B1FFE702988068102801D15D
:2038E000FFE708E049F2FC40C0F603004FF4F57120F096FEFFE70298C06828B1FFE702987C
:20390000C068402801D1FFE708E049F2FC40C0F6030040F2EB1120F083FEFFE7029800699F
:20392000F0B1FFE702980069B0F5003F18D0FFE702980069B0F5802F12D0FFE70298006929
:20394000B0F5C02F0CD0FFE702980069B0F5002F06D0FFE702980069B0F5202F01D1FFE7CF
:2039600008E049F2FC40C0F603004FF4F67120F057FEFFE702984069FF2801D8FFE708E029
:2039800049F2FC40C0F6030040F2ED1120F048FEFFE702988069FF2801D8FFE708E049F2FF
:2039A000FC40C0F603004FF4F77120F039FEFFE702980068102804D1FFE7039800680190B1
:2039C00003E00398006A0190FFE7019840F28111CFF6F0710840019002994868D1F808C050
:2039E000CB680A6940EA0C00184310434A6940EA4220896940EA41300199084340F0080054
:203A0000019002980068102804D1FFE701980399086003E0019803990862FFE7002004B047
:203A200080BD000080B584B047F61020C1F6FF700068039047F61420C1F6FF7000680290C1
:203A400047F61820C1F6FF70006801900199039808440390039888B1FFE7039840F6607162
:203A6000C2F2000100910231082207F079FE009902981231042207F073FEFFE704B080BD5A
:203A800080B584B0029001910298006B0090019848F67F71C0F20301884201D8FFE708E016
:203AA00049F2C440C0F603004FF4D06120F0B8FDFFE70098012804D0FFE70098022809D1D8
:203AC000FFE7019A029801684869104348610020039007E00299486B40F48020486301202D
:203AE0000390FFE7039804B080BD000080B588B006900591049203930698006B01900698C4
:203B00000068806800900598806828B1FFE705988068042801D1FFE708E049F2C440C0F63B
:203B2000030040F2E94120F07BFDFFE70598C06828B1FFE70598C068022801D1FFE708E0A5
:203B400049F2C440C0F6030040F2EA4120F068FDFFE705980069082801D8FFE708E049F29D
:203B6000C440C0F6030040F2EB4120F059FDFFE70598806890B9FFE7059801680020B0EB69
:203B8000D12F01D1FFE708E049F2C440C0F6030040F2EE4120F044FDFFE711E005984168BE
:203BA0000020B0EB517F01D1FFE708E049F2C440C0F6030040F2F24120F032FDFFE7FFE772
:203BC0000598406928B1FFE705984069012801D1FFE708E049F2C440C0F6030040F2F44172
:203BE00020F01EFDFFE70198012805D0FFE70198022840F08A80FFE79DF80300400700284D
:203C00000CD4FFE79DF803000007002806D4FFE79DF80300C00600286FD5FFE70098C0F35C
:203C2000016002900298032808D3FFE70699486B40F400004863012007906EE00299012018
:203C40008840039908600598806868B9FFE705980168C06840EA415006990968029A01EB8B
:203C60000211C1F880010EE005994A688868C96840EAC200084306990968029A01EB0211B6
:203C8000C1F88001FFE70598006906990968029A01EB0211C1F884010598406901280CD1C9
:203CA000FFE706980068029900EB0111D1F8840140F48070C1F88401FFE704984068069907
:203CC0000968029A01EB0211C1F88C010498006806990968029A01EB0211C1F88801069803
:203CE0000068029900EB0111D1F8800140F00100C1F88001002007900FE00699486B40F4E3
:203D0000001048630120079007E00699486B40F48020486301200790FFE7079808B080BD46
:203D200080B586B0049003910498006801900498006B00900098012805D0FFE70098022886
:203D400040F05181FFE70398408808B9FFE708E049F2C440C0F603004FF4547120F060FC1D
:203D6000FFE70398C08808B9FFE708E049F2C440C0F6030040F2513120F052FCFFE7039860
:203D8000408908B9FFE708E049F2C440C0F6030040F2523120F044FCFFE70398C08908B943
:203DA000FFE708E049F2C440C0F6030040F2533120F036FCFFE70398806928B1FFE7039881
:203DC0008069012801D1FFE708E049F2C440C0F603004FF4557120F023FCFFE70398C06957
:203DE00028B1FFE70398C069012801D1FFE708E049F2C440C0F6030040F2553120F010FCAB
:203E0000FFE70398006928B1FFE703980069012801D1FFE708E049F2C440C0F6030040F202
:203E2000563120F0FDFBFFE70398006A28B1FFE70398006A012801D1FFE708E049F2C4403C
:203E4000C0F6030040F2573120F0EAFBFFE746F20040C4F200000190039840691B2801D8F5
:203E6000FFE708E049F2C440C0F6030040F2723120F0D6FBFFE70398406A1B2801D8FFE799
:203E800008E049F2C440C0F6030040F2733120F0C7FBFFE70199D1F8000240F00100C1F865
:203EA00000020199D1F8000220F47C50C1F800020398426A0199D1F8000240EA0220C1F84F
:203EC00000020398406900F01F01012088400290029A0199D1F81C029043C1F81C020398AF
:203EE000C069F0B9FFE7029A0199D1F80C029043C1F80C02039A9088D168526940EA01404F
:203F0000019901EBC201C1F84002039A10889168526940EA0140019901EBC201C1F84402C1
:203F2000FFE70398C06901281ED1FFE7029A0199D1F80C021043C1F80C02039A9088116884
:203F4000526940EA0140019901EBC201C1F84002039A90899168526940EA0140019901EB9C
:203F6000C201C1F84402FFE70398806940B9FFE7029A0199D1F804029043C1F8040207E0B8
:203F8000029A0199D1F804021043C1F80402FFE70398006940B9FFE7029A0199D1F814022C
:203FA0009043C1F8140207E0029A0199D1F814021043C1F81402FFE70398006A012808D154
:203FC000FFE7029A0199D1F81C021043C1F81C02FFE70199D1F8000220F00100C1F800029D
:203FE0000020059007E00499486B40F48020486301200590FFE7059806B080BD80B582B0C3
:020000040800F2
:20400000019019F049FF4BF28440C2F200001EF0BDFC02B080BD000080B586B004900391C0
:20402000029201930498006B0090039820B1FFE70398012801D1FFE708E049F2C440C0F616
:2040400003004FF4BE6120F0EBFAFFE70098012805D0FFE70098022840F0D480FFE70398DD
:2040600078B9FFE704980068C068800740B9FFE70499486B40F40010486301200590C9E0F9
:204080000EE0049800680069800740B9FFE70499486B40F40010486301200590BAE0FFE7EA
:2040A00004980068039900EB0110D0F8B00100F00400029988600298806858B9FFE704985F
:2040C0000068039900EB0110D0F8B001400D029908600AE004980068039900EB0110D0F8C9
:2040E000B001C00802994860FFE704980068039900EB0110D0F8B00100F002000299C86054
:2041000004980068039900EB0110D0F8B40100F00F000299086104980068039900EB0110E7
:20412000D0F8B40180B2000A0299886104980068039900EB0110D0F8B401000C02994861D9
:2041400004980068039900EB0110D0F8B8010199087004980068039900EB0110D0F8B80113
:20416000000A0199487004980068039900EB0110D0F8B801000C0199887004980068039988
:2041800000EB0110D0F8B801000E0199C87004980068039900EB0110D0F8BC01019908718E
:2041A00004980068039900EB0110D0F8BC01000A0199487104980068039900EB0110D0F81D
:2041C000BC01000C0199887104980068039900EB0110D0F8BC01000E0199C871039838B9F5
:2041E000FFE704980168C86840F02000C86006E004980168086940F020000861FFE7002011
:20420000059007E00499486B40F48020486301200590FFE7059806B080BD000080B58AB0B8
:20422000099000200890099800684069079009980068406806900998006880680590099876
:204240000068C0680490099800680069039009980068806902909DF81C00C007002800F021
:204260009480FFE79DF81400C00758B3FFE709980168012088609DF814008007002804D59F
:20428000FFE7099800F01AFD1BE09DF814004007002805D5FFE7089840F4006008900FE002
:2042A0009DF814000007002805D5FFE7089840F48050089003E0099800F0FCFCFFE7FFE7F2
:2042C000FFE7FFE79DF81500C00760B3FFE7099801684FF4807088609DF81500800700282A
:2042E00004D5FFE7099800F0FFFC1BE09DF815004007002805D5FFE7089840F400500890E3
:204300000FE09DF815000007002805D5FFE7089840F48040089003E0099800F0D7FCFFE7BC
:20432000FFE7FFE7FFE79DF81600C00760B3FFE7099801684FF4803088609DF81600800749
:20434000002804D5FFE7099800F0D6FC1BE09DF816004007002805D5FFE7089840F400402A
:2043600008900FE09DF816000007002805D5FFE7089840F48030089003E0099800F0B8FCD8
:20438000FFE7FFE7FFE7FFE7FFE79DF81C000007002810D5FFE79DF81000C006002809D583
:2043A000FFE7089840F400700890099801681020C860FFE7FFE79DF81C00400700280FD509
:2043C000FFE79DF810000007002808D5FFE7099801680820C860099800F0EAFBFFE7FFE7C4
:2043E0009DF81C00800700280BD5FFE709980068C068800720B1FFE7099800F0DDFBFFE7D9
:20440000FFE79DF81C004006002810D5FFE79DF80C00C006002809D5FFE7089840F48060C5
:2044200008900998016810200861FFE7FFE79DF81C00800600280FD5FFE79DF80C000007A4
:20444000002808D5FFE70998016808200861099800F0E6FBFFE7FFE79DF81C00C0060028F9
:204460000BD5FFE7099800680069800720B1FFE7099800F0D9FBFFE7FFE79DF81E0080075B
:2044800000280FD5FFE79DF81800C006002808D5FFE70998016810204860099800F0C8FB96
:2044A000FFE7FFE79DF81E00C00778B1FFE79DF818000007002808D5FFE7099801680820D6
:2044C0004860099800F01CFCFFE7FFE79DF81D000006002840F18D80FFE79DF818004007C7
:2044E000002840F18180FFE79DF81D00C00750B1FFE79DF80800C00728B1FFE7089840F029
:2045000001000890FFE79DF81D00800700280BD5FFE79DF808008007002805D5FFE7089849
:2045200040F002000890FFE79DF81D00400700280BD5FFE79DF808004007002805D5FFE718
:20454000089840F004000890FFE79DF81D000007002848D5FFE79DF8080010F0700F42D0F7
:20456000FFE7029800F0700001460191102814D0FFE70198202815D0FFE70198302816D0FD
:20458000FFE70198402817D0FFE70198502818D0FFE70198602819D01DE0089840F00800A9
:2045A000089019E0089840F01000089014E0089840F0200008900FE0089840F040000890DF
:2045C0000AE0089840F08000089005E0089840F48070089000E0FFE709980168886920F0F7
:2045E00070008861FFE7FFE70998016804204860FFE7089848B1FFE7089A0999486B104311
:2046000048630998FFF7FAFCFFE70AB080BD000080B584B00290029818B9FFE70120039085
:204620005CE20298006846F20041C4F20001884209D0FFE70298006846F60001C4F200018B
:20464000884201D1FFE708E049F2C440C0F6030040F21D111FF0E4FFFFE70298806928B164
:20466000FFE702988069012801D1FFE708E049F2C440C0F603004FF48F711FF0D1FFFFE708
:204680000298C06928B1FFE70298C069012801D1FFE708E049F2C440C0F6030040F21F11B2
:2046A0001FF0BEFFFFE70298006A28B1FFE70298006A012801D1FFE708E049F2C440C0F6C3
:2046C00003004FF490711FF0ABFFFFE70298406A28B1FFE70298406A012801D1FFE708E0E4
:2046E00049F2C440C0F6030040F221111FF098FFFFE70298806A28B1FFE70298806A0128E2
:2047000001D1FFE708E049F2C440C0F603004FF491711FF085FFFFE70298C06A28B1FFE7C0
:204720000298C06A012801D1FFE708E049F2C440C0F6030040F223111FF072FFFFE702988E
:20474000806890B1FFE702988068B0F1804F0CD0FFE702988068B0F1004F06D0FFE70298CE
:204760008068B0F1404F01D1FFE708E049F2C440C0F603004FF492711FF052FFFFE7029863
:20478000C06890B1FFE70298C068B0F1807F0CD0FFE70298C068B0F1007F06D0FFE702986E
:2047A000C068B0F1407F01D1FFE708E049F2C440C0F6030040F225111FF032FFFFE70298B1
:2047C000006900285AD0FFE702980069B0F5803F54D0FFE702980069B0F5003F4ED0FFE7DC
:2047E00002980069B0F5403F48D0FFE702980069B0F5802F42D0FFE702980069B0F5A02FCE
:204800003CD0FFE702980069B0F5C02F36D0FFE702980069B0F5E02F30D0FFE70298006983
:20482000B0F5002F2AD0FFE702980069B0F5102F24D0FFE702980069B0F5202F1ED0FFE738
:2048400002980069B0F5302F18D0FFE702980069B0F5402F12D0FFE702980069B0F5502F7D
:204860000CD0FFE702980069B0F5602F06D0FFE702980069B0F5702F01D1FFE708E049F261
:20488000C440C0F603004FF493711FF0C9FEFFE70298406950B3FFE702984069B0F5801FA5
:2048A00024D0FFE702984069B0F5001F1ED0FFE702984069B0F5401F18D0FFE702984069EB
:2048C000B0F5800F12D0FFE702984069B0F5A00F0CD0FFE702984069B0F5C00F06D0FFE710
:2048E00002984069B0F5E00F01D1FFE708E049F2C440C0F6030040F227111FF091FEFFE75B
:204900000298406838B1FFE702984068B0F5806F01D8FFE708E049F2C440C0F603004FF4CE
:2049200094711FF07DFEFFE70298006B20B9FFE7029800F0D7F8FFE702980168086820F07C
:204940000200086002F0A2FD0190FFE70298006840688007002813D5FFE702F097FD01999E
:20496000401A0B280BD3FFE70299486B40F40030486302990520086301200390AEE0E5E750
:2049800002980168086840F00100086002F07EFD0190FFE7029800684068C00798B9FFE77F
:2049A00002F074FD0199401A0B280BD3FFE70299486B40F400304863029905200863012000
:2049C00003908BE0E6E702988069012807D1FFE702980168086840F08000086006E0029897
:2049E0000168086820F080000860FFE70298C069012807D1FFE702980168086840F0400073
:204A0000086006E002980168086820F040000860FFE70298006A012807D1FFE70298016849
:204A2000086840F02000086006E002980168086820F020000860FFE70298406A012807D132
:204A4000FFE702980168086820F01000086006E002980168086840F010000860FFE70298F4
:204A6000806A012807D1FFE702980168086840F00800086006E002980168086820F00800E1
:204A80000860FFE70298C06A012807D1FFE702980168086840F00400086006E00298016825
:204AA000086820F004000860FFE7029B19685A689868D3F80CC040EA0C00D3F810C040EAB2
:204AC0000C005B691843013A1043C861029900204863029A012111630390FFE7039804B094
:204AE00080BD000080B58EB00D9000200C900B900A90099008900D98006846F20041C4F20B
:204B00000001884252D1FFE7FFE70020079043F64000C4F20200016841F00071016000681F
:204B200000F0007007900798FFE7FFE70020069043F63000C4F20200016841F0020101603E
:204B4000006800F0020006900698FFE74FF44070089002200990002004900A9003200B908F
:204B600009200C9040F20040C4F2020008A902F09FF8049A132001900121029102F0B6FE4F
:204B8000019802F09DFE0299049A1420039002F0ADFE039802F094FE049A162005900421A5
:204BA00002F0A4FE059802F08BFEFFE70EB080BD81B0009001B0704780B584B003904BF206
:204BC0008440C2F200000190C3684BF62800C2F2000048F2C402C2F2000202920021FFF723
:204BE0001BFA0199029800680988884216D1FFE748F2C400C2F2000000694BF28441C2F20B
:204C000000014988884209D1FFE719F04FF94BF28440C2F200001DF0B9FEFFE704B080BD97
:204C200081B0009001B0704781B0009001B0704781B0009001B0704780B584B00290029864
:204C4000006B01282BD1FFE702990220086302980168086820F00100086002F017FC019034
:204C6000FFE7029800684068C00798B1FFE702F00DFC0199401A0B280BD3FFE70299486B7A
:204C800040F400304863029905200863012003900DE0E6E7029900204863039007E00299F1
:204CA000486B40F40020486301200390FFE7039804B080BD81B0009001B0704780B582B08C
:204CC000019019F0F3F802B080BD000080B582B0019019F0E1F84BF28440C2F200001DF0C4
:204CE00055FE02B080BD000081B0009001B0704781B0009001B0704781B0009001B07047F7
:204D000081B0009001B0704780B584B002900298C06D019002F0BAFB00900298806B022831
:204D20000BD0FFE7029980208865FFE7029900204863FFE7012003904EE002980168086803
:204D400020F01600086002980168486920F0800048610298406C20B9FFE70298C06C38B124
:204D6000FFE702980168086820F008000860FFE702980168086820F001000860FFE7029808
:204D800000680068C007A8B1FFE702F07FFB0099401A06280DD3FFE7029920208865FFE73C
:204DA000029900204863FFE7029903208863039012E0E4E70298016E3F20884001998860FC
:204DC000FFE7029900204863FFE7029901208863FFE700200390FFE7039804B080BD0000EF
:204DE00082B000900098806B022806D0FFE7009980208865012001900CE00099052088631B
:204E000000980168086820F001000860FFE700200190FFE7019802B07047000080B586B0BE
:204E200005900020039040F62060C2F20000006848F2B511C1F64E31A0FB0110800A02905A
:204E40000598C06D019001980068049004980599096EC840000700281AD5FFE705980068A0
:204E600000684007002812D5FFE705980168086820F0040008600598016E08208840019906
:204E800088600599886D40F001008865FFE7FFE704980599096EC840C007A0B1FFE7059859
:204EA00000684069000600280CD5FFE70598016E01208840019988600599886D40F00200B0
:204EC0008865FFE7FFE704980599096EC8404007002814D5FFE70598006800688007002806
:204EE0000CD5FFE70598016E04208840019988600599886D40F004008865FFE7FFE7049855
:204F00000599096EC840C006002847D5FFE7059800680068000700283FD5FFE70598016EE2
:204F20001020884001998860059800680068400300281AD5FFE705980068006800030028B2
:204F400009D4FFE70598406C20B1FFE70598416C8847FFE708E00598C06C20B1FFE705988A
:204F6000C16C8847FFE7FFE716E0059800680068C005002807D4FFE705980168086820F0D2
:204F800008000860FFE70598406C20B1FFE70598416C8847FFE7FFE7FFE7FFE704980599D0
:204FA000096EC8408006002840F18780FFE7059800680068C00600287ED5FFE70598016E06
:204FC00020208840019988600598806B052832D1FFE705980168086820F016000860059808
:204FE0000168486920F0800048610598406C20B9FFE70598C06C38B1FFE705980168086848
:2050000020F008000860FFE70598016E3F20884001998860FFE7059900204863FFE70599A2
:20502000012088630598406D20B1FFE70598416D8847FFE776E00598006800684003002835
:205040001AD5FFE70598006800680003002809D4FFE70598806C20B1FFE70598816C884787
:20506000FFE708E00598006C20B1FFE70598016C8847FFE7FFE71EE0059800680068C005CD
:2050800000280FD4FFE705980168086820F010000860FFE7059900204863FFE7059901202D
:2050A0008863FFE70598006C20B1FFE70598016C8847FFE7FFE7FFE7FFE70598806D88B329
:2050C000FFE70598806DC00718B3FFE705990520886305980168086820F001000860FFE765
:2050E0000398013003900299884201D9FFE707E0FFE7059800680068C0070028F0D1FFE75C
:20510000FFE7059900204863FFE7059901208863FFE70598006D20B1FFE70598016D88472F
:20512000FFE7FFE706B080BD80B586B004900020039002F0ABF90290049818B9FFE7012062
:2051400005907FE20498006846F21001C4F20201884200F08880FFE70498006846F2280146
:20516000C4F2020188427ED0FFE70498006846F24001C4F20201884275D0FFE70498006849
:2051800046F25801C4F2020188426CD0FFE70498006846F27001C4F20201884263D0FFE790
:2051A0000498006846F28801C4F2020188425AD0FFE70498006846F2A001C4F20201884237
:2051C00051D0FFE70498006846F2B801C4F20201884248D0FFE70498006846F21041C4F20F
:2051E000020188423FD0FFE70498006846F22841C4F20201884236D0FFE70498006846F29D
:205200004041C4F2020188422DD0FFE70498006846F25841C4F20201884224D0FFE70498D9
:20522000006846F27041C4F2020188421BD0FFE70498006846F28841C4F20201884212D05F
:20524000FFE70498006846F2A041C4F20201884209D0FFE70498006846F2B841C4F202011B
:20526000884201D1FFE707E049F21940C0F60300B8211FF0D5F9FFE70498406850B3FFE7AF
:2052800004984068B0F1007F24D0FFE704984068B0F1806F1ED0FFE704984068B0F1C06F14
:2052A00018D0FFE704984068B0F1006F12D0FFE704984068B0F1206F0CD0FFE7049840688A
:2052C000B0F1406F06D0FFE704984068B0F1606F01D1FFE707E049F21940C0F60300B92148
:2052E0001FF09EF9FFE70498806850B1FFE704988068402805D0FFE704988068802801D112
:20530000FFE707E049F21940C0F60300BA211FF087F9FFE70498C068B0F5007F04D0FFE781
:205320000498C06808B9FFE707E049F21940C0F60300BB211FF074F9FFE704980069B0F5E6
:20534000806F04D0FFE70498006908B9FFE707E049F21940C0F60300BC211FF061F9FFE798
:205360000498406960B1FFE704984069B0F5006F06D0FFE704984069B0F5805F01D1FFE75B
:2053800007E049F21940C0F60300BD211FF048F9FFE70498806960B1FFE704988069B0F51F
:2053A000005F06D0FFE704988069B0F5804F01D1FFE707E049F21940C0F60300BE211FF0FF
:2053C0002FF9FFE70498C06958B1FFE70498C069B0F5807F05D0FFE70498C069202801D108
:2053E000FFE707E049F21940C0F60300BF211FF017F9FFE70498006A90B1FFE70498006A7B
:20540000B0F5803F0CD0FFE70498006AB0F5003F06D0FFE70498006AB0F5403F01D1FFE7DE
:2054200007E049F21940C0F60300C0211FF0F8F8FFE70498406A28B1FFE70498406A0428FB
:2054400001D1FFE707E049F21940C0F60300C1211FF0E6F8FFE70498406A00285BD0FFE72C
:205460000498806A78B1FFE70498806A01280AD0FFE70498806A022805D0FFE70498806A37
:20548000032801D1FFE707E049F21940C0F60300C6211FF0C5F8FFE70498C06A90B1FFE76F
:2054A0000498C06AB0F5000F0CD0FFE70498C06AB0F1807F06D0FFE70498C06AB0F1C07FE8
:2054C00001D1FFE707E049F21940C0F60300C7211FF0A6F8FFE70498006B90B1FFE704989B
:2054E000006BB0F5001F0CD0FFE70498006BB0F5800F06D0FFE70498006BB0F5C00F01D177
:20550000FFE707E049F21940C0F60300C8211FF087F8FFE7FFE7FFE7049900204863FFE7FA
:2055200004990220886304980168086820F001000860FFE7049800680068C00780B1FFE7A3
:2055400001F0A4FF0299401A062808D3FFE7049920208865049903208863059072E0E9E7A7
:205560000498006800680390039848F23F01CFF2100108400390049900914868D1F808C0FB
:20558000CB680A6940EA0C00184310434A6910438A691043CA691043096A01430398084312
:2055A00003900498406A042808D1FFE70499C86A096B0143039808430390FFE70398049909
:2055C000096808600498006840690390039820F0070003900498416A039808430390049811
:2055E000406A042818D1FFE70498816A0398084303900498C06A70B1FFE70498FDF7FEFCAF
:2056000040B1FFE7049940208865049901208863059017E0FFE7FFE7039804990968486176
:205620000498FDF7BFFC01900498016E3F20884001998860049900208865049A012191637C
:205640000590FFE7059806B080BD000080B588B00690059104920393002002900698C06DFD
:205660000190039828B1FFE7BDF80E0008B9FFE708E049F21940C0F603004FF4E6711EF0F8
:20568000CFFFFFE7FFE70698406B012803D1FFE7022007903EE0069901204863FFE7FFE736
:2056A0000698806B01282AD1FFE706990220886306990020886506980599049A039BFDF793
:2056C0000DFD0698016E3F2088400199886006980168086840F0160008600698406C38B1B2
:2056E000FFE706980168086840F008000860FFE706980168086840F00100086007E0FFE7EA
:20570000069900204863FFE702200290FFE702980790FFE7079808B080BD000080B584B08B
:20572000039001F0B3FE0290039801900198013048B1FFE741F6F010C2F2000001680198E0
:2057400008440190FFE7FFE701F0A0FE0299401A0199884201D2FFE7F6E704B080BD000031
:2057600080B588B00690059100200490FFE70698806C012803D1FFE70220079060E30699EE
:2057800001208864FFE7FFE70699022048640698806830B1FFE706988068B0F5804F01D1AA
:2057A000FFE708E049F27030C0F6030040F20C611EF036FFFFE70698C068B0F5006F04D011
:2057C000FFE70698C06808B9FFE708E049F27030C0F6030040F20D611EF022FFFFE70598A8
:2057E000002800F00383FFE70598006830B1FFE705980068B0F5000F01D1FFE708E049F2C5
:205800007030C0F6030040F212611EF009FFFFE70598406830B1FFE705984068B0F5800F09
:2058200001D1FFE708E049F27030C0F6030040F213611EF0F5FEFFE70598806850B3FFE739
:2058400005988068B0F5003F24D0FFE705988068B0F5802F1ED0FFE705988068B0F5C02F3F
:2058600018D0FFE705988068B0F5002F12D0FFE705988068B0F5202F0CD0FFE70598806879
:20588000B0F5402F06D0FFE705988068B0F5602F01D1FFE708E049F27030C0F6030040F219
:2058A00014611EF0BDFEFFE70598C06830B1FFE70598C068B0F5803F01D1FFE708E049F234
:2058C0007030C0F6030040F215611EF0A9FEFFE70598006930B1FFE705980069B0F5005F55
:2058E00001D1FFE708E049F27030C0F6030040F216611EF095FEFFE705984069B0F5805F7A
:2059000004D0FFE70598406908B9FFE708E049F27030C0F6030040F217611EF081FEFFE747
:2059200005988069B0F5806F04D0FFE70598806908B9FFE708E049F27030C0F603004FF4A7
:20594000C3611EF06DFEFFE70598C06930B1FFE70598C069B0F5007F01D1FFE708E049F272
:205960007030C0F6030040F219611EF059FEFFE70598006A802804D0FFE70598006A08B9A6
:20598000FFE708E049F27030C0F6030040F21A611EF046FEFFE70598406A78B1FFE70598CD
:2059A000406A20280AD0FFE70598406A402805D0FFE70598406A602801D1FFE708E049F221
:2059C0007030C0F6030040F21B611EF029FEFFE70598806A102804D0FFE70598806A08B9E4
:2059E000FFE708E049F27030C0F6030040F21C611EF016FEFFE70598C06AB0F1004F04D003
:205A0000FFE70598C06A08B9FFE708E049F27030C0F6030040F21D611EF002FEFFE7059875
:205A2000006BB0F5007F0AD0FFE70598006BB0F5407F04D0FFE70598006B08B9FFE708E05A
:205A400049F27030C0F6030040F21E611EF0E8FDFFE70598406B40280AD0FFE70598406B70
:205A6000802805D0FFE70598406BC02801D1FFE708E049F27030C0F6030040F21F611EF09F
:205A8000CFFDFFE70598806B28B1FFE70598806B202801D1FFE708E049F27030C0F6030009
:205AA0004FF4C4611EF0BCFDFFE70598C06B28B1FFE70598C06B082801D1FFE708E049F277
:205AC0007030C0F6030040F221611EF0A9FDFFE70598006C012804D0FFE70598006C08B969
:205AE000FFE708E049F27030C0F6030040F222611EF096FDFFE70598406C40F2044188427E
:205B00000ED0FFE70598406C042809D0FFE70598406C28B1FFE70598406C102801D1FFE74C
:205B200008E049F27030C0F6030040F223611EF077FDFFE70598806C40F20241884209D02A
:205B4000FFE70598806C022804D0FFE70598806C08B9FFE708E049F27030C0F6030040F214
:205B600024611EF05DFDFFE70598B0F8560008B9FFE708E049F27030C0F6030040F22561DC
:205B80001EF04EFDFFE70598806D28B1FFE70598806D802801D1FFE708E049F27030C0F61A
:205BA000030040F226611EF03BFDFFE70598C06D78B1FFE70598C06D10280AD0FFE70598C5
:205BC000C06D202805D0FFE70598C06D302801D1FFE708E049F27030C0F6030040F2276185
:205BE0001EF01EFDFFE70598006E082804D0FFE70598006E08B9FFE708E049F27030C0F676
:205C000003004FF4C5611EF00BFDFFE70598406E042804D0FFE70598406E08B9FFE708E011
:205C200049F27030C0F6030040F229611EF0F8FCFFE70598806E022804D0FFE70598806E32
:205C400008B9FFE708E049F27030C0F6030040F22A611EF0E5FCFFE70598C06EB0F5803F60
:205C600004D0FFE70598C06E08B9FFE708E049F27030C0F6030040F22B611EF0D1FCFFE7FD
:205C80000598B0F8720008B9FFE708E049F27030C0F6030040F22C611EF0C2FCFFE706981B
:205CA000006800680490049848F20F11CFF6207108400490059901910868D1F804C08B6838
:205CC000CA6840EA0C0018431043069A9368D26818430B6918434B69184310438A69104307
:205CE000CA6910430A6A10434A6A1043896A014304980843049004980699096808600698EC
:205D000000680068049001200390FFF707FD03980499069A12681160059A0292D16AD2F876
:205D200030E0D2F834C0936B41EA0E0141EA0C011943D36B1943136C1943536C1943926C3B
:205D40001143069A126851600699096849680491FFF7E4FC03980499069A12685160059957
:205D6000C96C069A126891600599096D069A1268D160069909688969049104994FF6417258
:205D800011400491059AD2F854E0916DD2F85CC0136E41EA0E4141EA0C011943536E1943F0
:205DA000926E0A430499114304910499069A126891610699096889690491FFF7AFFC039894
:205DC0000499069A12689161059AD16E126F1143069A1268D16106990968C9690491FFF74E
:205DE0009DFC049806990968C8611EE00698006800680490049820F4904004900699886892
:205E0000C9680143049808430490049806990968086006980068006804900120FFF77EFCEB
:205E20000498069909680860FFE7069901204864FFE7069900208864FFE700200790FFE7E8
:205E4000079808B080BD000087B0059004910392029300200190FFE70598806C012803D106
:205E6000FFE7022006905AE0059901208864FFE7FFE7059902204864049805998862002023
:205E80000190FFE701980299884237D2FFE70498019900EB4110009000994FF0004008601C
:205EA000009944F2F4504860039A019840F2F45100FB01200099886005988069012806D157
:205EC000FFE70099486820F000404860FFE7019802990139884208D2FFE70498019900EB9C
:205EE000411020300099C86003E004980099C860FFE7FFE7019801300190C3E704980599F5
:205F0000096841F20C028850059901204864FFE7059900208864FFE700200690FFE70698DC
:205F200007B0704787B0059004910392029300200190FFE70598806C012803D1FFE7022043
:205F4000069055E0059901208864FFE7FFE705990220486404980599C86200200190FFE798
:205F600001980299884232D2FFE70498019900EB4110009000994FF480100860039A01982D
:205F800040F2F45100FB0120009988600598C06930B9FFE70099086840F440000860FFE78D
:205FA000019802990139884208D2FFE70498019900EB411020300099C86003E0049800994E
:205FC000C860FFE7FFE7019801300190C8E704980599096841F21002885005990120486490
:205FE000FFE7059900208864FFE700200690FFE7069807B07047000081B0009001B070475A
:020000040800F2
:2060000083B0019000200090FFE70198806C012803D1FFE70220029072E001990120886411
:20602000FFE7FFE70199022048640198806A0068C00F002859D1FFE70198806A0068C0058A
:20604000002832D5FFE70199886B013088630198806B012804D1FFE70199886A0863FFE73D
:206060000199886A48630198806A00680021C3F6FF7101406FF0030000EB114000900098AD
:206080000199C8630199086B806808640199886AC0688862019901204864FFE70199002035
:2060A0008864FFE7002002902AE00198806A0068800500280ED5FFE70199886A0863019960
:2060C000002048630199012088630199886AC068886208E00199886B013088630199886A94
:2060E000C0688862FFE7FFE7FFE7019901204864FFE7019900208864FFE701200290FFE76A
:20610000029803B07047000080B582B001900198006841F2140140584006002812D5FFE767
:20612000019800F0A9FB0198016841F2140240208850019901204864FFE7019900208864BC
:20614000FFE719E00198006841F214014058C00788B1FFE7019800F0DBFC0198016841F204
:2061600014020120885001994864FFE7019900208864FFE7FFE7FFE70198026841F2140141
:206180004FF4803050500198006840580004002813D5FFE70198FFF72FFF0198016841F2E7
:2061A00014024FF400408850019901204864FFE7019900208864FFE7FFE702B080BD0000C0
:2061C00080B58EB00C9000200B900A9048F20071C0F293310991089007900C9818B9FFE716
:2061E00001200D9008E20C984068012804D0FFE70C98406808B9FFE707E049F27030C0F65D
:206200000300E3211EF00CFAFFE70C98806928B1FFE70C988069012801D1FFE707E049F2A1
:206220007030C0F60300E4211EF0FAF9FFE70C98C06928B1FFE70C98C069012801D1FFE7DF
:2062400007E049F27030C0F60300E5211EF0E8F9FFE70C98006A30B1FFE70C98006AB0F560
:20626000000F01D1FFE707E049F27030C0F60300E6211EF0D5F9FFE70C98406C38B9FFE7EC
:206280000C99002088640C9800F0BAF9FFE7FFE70020069043F64400C4F20200016841F4B1
:2062A00080410160006800F4804006900698FFE743F60401C4F20101086820F400000860A4
:2062C0000C98026A0868104308600C9801684FF48052885840F00100885001F0D7F8089020
:2062E000FFE70C9800684FF480514058C007A0B1FFE701F0CBF80899401AB0F5FA7F0BD951
:20630000FFE70C9903204864FFE70C9900208864FFE703200D906FE1E3E70C980068006957
:206320000B900B9820F01C000B9002F0D7FD0990099842F60051C0F2311188420DD3FFE74B
:20634000099840F6BF61C0F21621884205D8FFE70B9840F008000B9042E0099840F6C06140
:20636000C0F2162188420DD3FFE7099848F2FF61C0F29331884205D8FFE70B9840F00C0087
:206380000B902CE0099848F20071C0F29331884209D3FFE709984EF2FF01C0F2F551884265
:2063A00001D8FFE71AE009984EF20011C0F2F55188420DD3FFE709984DF27F11C0F6F00193
:2063C000884205D8FFE70B9840F004000B9004E00B9840F010000B90FFE7FFE7FFE7FFE7C4
:2063E0000B980C99096808610C9800214FF4004200F092FB60B1FFE70120059007900C98CC
:206400000799FCF73BFF05980C9948640D90F3E0FF20FFF783F90C984068002800F09D803F
:20642000FFE701F033F80890FFE70C9801210AAA00F0ACF901F02AF80899401A41F28931D2
:20644000884212D3FFE70120049007900C980799FCF714FF04980C994864FFE70C99002079
:206460008864FFE703200D90C6E0FFE79DF8280040070028D9D5FFE70C9800214FF4805264
:2064800000F04AFB60B1FFE70120039007900C980799FCF7F3FE03980C9948640D90ABE049
:2064A00000F0F4FF0890FFE70C9801210AAA00F06DF900F0EBFF0899401A41F2893188421F
:2064C00012D3FFE70120029007900C980799FCF7D5FE02980C994864FFE70C99002088641B
:2064E000FFE703200D9087E0FFE79DF8280080060028D9D5FFE70C9810210AAA00F046F9F2
:2065000060B1FFE70120019007900C980799FCF7B5FE01980C9948640D906DE09DF82800C0
:206520004007002805D5FFE70C994FF40060C86003E00C990020C860FFE79DF828008007C2
:20654000002804D5FFE70C990020886004E00C994FF480408860FFE744E00C98806830B1BC
:20656000FFE70C988068B0F5804F01D1FFE708E049F27030C0F6030040F2C9111EF050F89F
:20658000FFE70C98C068B0F5006F04D0FFE70C98C06808B9FFE708E049F27030C0F603008C
:2065A0004FF4E5711EF03CF8FFE70C988268C168C90841EA52018AB2002100F0ADFA60B10F
:2065C000FFE70120009007900C980799FCF756FE00980C9948640D900EE040F6FF70FFF7F3
:2065E0009DF8FFE70C980799FCF748FE0C990120486400200D90FFE70D980EB080BD0000EE
:2066000080B592B01190002010900F900E900D900C901198006848F20001C4F2020188425D
:2066200040F0B280FFE7FFE7FFE700200B9043F63000C4F20200016841F000710160006896
:2066400000F000700B900B98FFE7FFE700200A9043F63000C4F20200016841F08061016019
:20666000006800F080600A900A98FFE7FFE70020099043F63000C4F20200016841F0006105
:206680000160006800F0006009900998FFE7FFE7FFE70020089043F63000C4F202000168B3
:2066A00041F004010160006800F0040008900898FFE7FFE70020079043F63000C4F202000B
:2066C000016841F001010160006800F0010007900798FFE7FFE70020069043F63000C4F28D
:2066E0000200016841F040010160006800F0400006900698FFE732200C90022000900D906D
:20670000002004900E90032001900F900B200290109040F60000C4F202000CA9039100F050
:20672000C7FADDF800C0019A02980399049B4FF0860ECDF830E0CDF834C00E930F92109050
:206740000020C4F2020000F0B3FADDF800C0019A02980399049B4FF4D04ECDF830E0CDF8C4
:2067600034C00E930F92109041F60000C4F2020000F09EFA049A3D200590042101F0B6F878
:20678000059801F09DF8FFE712B080BD80B586B00490ADF80E1002920020019000900498BE
:2067A000008A202801D8FFE708E049F27030C0F6030040F215511DF033FFFFE70498406CC7
:2067C000822803D1FFE70220059052E00499822048640498006800690190019800F01C00DE
:2067E00001900498008AC00281B2019808430190BDF80E0000F01F01019840EA81100190C0
:20680000019820F002000190019840F001000190019804990968086100F038FE0090FFE735
:206820009DF80400C007C0B1FFE700F02FFE0099401AB0F5803F0BD3FFE7049901204864FF
:20684000FFE7049900208864FFE70320059010E00498006800690190E2E7049800684069A7
:2068600080B20299086004990120486400200590FFE7059806B080BD81B0009001B0704725
:2068800080B582B00090FFE70098806C012803D1FFE70220019021E0009901208864FFE774
:2068A000FFE70099022048640098FCF79DFE0098FCF76AFE0098FCF789FC0098FCF75CFC7F
:2068C0000098FCF741FC009901204864FFE7009900208864FFE700200190FFE7019802B037
:2068E00080BD000080B582B00090FFE70098806C012803D1FFE70220019021E000990120A9
:206900008864FFE7FFE70099022048640098FCF727FC0098FCF70CFC0098FCF71DFE0098D9
